S012000054616E6B20526F626F742E737265635E
S11300000C9434000C94B3020C9451000C945100E1
S11300100C9451000C9451000C9451000C94510018
S11300200C9451000C9451000C9451000C94510008
S11300300C9451000C9451000C9451000C945100F8
S11300400C9434030C9451000C9451000C94510002
S11300500C9451000C9451000C9451000C945100D8
S11300600C9451000C94510011241FBECFEFD8E022
S1130070DEBFCDBF11E0A0E0B1E0E8ECFCE002C0DF
S113008005900D92A430B107D9F721E0A4E0B1E0C6
S113009001C01D92AE33B207E1F70E949B040C9499
S11300A062060C9400005E988FE097E20197F1F7E6
S11300B000C0000008955E9A8FE097E20197F1F77F
S11300C000C0000008950097B9F040E050E0599A4C
S11300D0599820910201309103012115310539F01D
S11300E062E06A95F1F700C021503109C9F74F5F0A
S11300F05F4F4817590759F708955C9A58988EEE40
S113010092E00E9463005C98589808955C98589A0D
S11301108EEE92E00E9463005C98589808955C9873
S1130120589884E690E00E94630008955C9A589A77
S113013088EE93E00E9463005C985898089585B512
S1130140816085BDEEE6F0E0808181608083089562
S1130150E0EBF0E08081806880838081816080832F
S1130160E1EBF0E08081846080830895E0EBF0E0CF
S113017080818F77808380818E7F8083E1EBF0E0C4
S113018080818B7F80830895E9E6F0E080818E7F13
S1130190808380818D7F8083E8980895E9E6F0E08C
S11301A0808181608083808182608083E89A7894F2
S11301B0089580911801909119010197B1F00E945E
S11301C0A8008EE68093B3002FE78EED9FE02150C8
S11301D080409040E1F700C0000081E090E09093FF
S11301E01901809318010E94B6000E94C400529A1B
S11301F05A9A2AE12A95F1F700C05A9852980E9417
S1130200CE0083EF91E00197F1F700C000008091E8
S11302102E0190912F01A0913001B0913101809372
S11302202A0190932B01A0932C01B0932D010895E2
S113023080911801909119010297B1F00E94A800D1
S11302408BE48093B3002FE78EED9FE02150804034
S11302509040E1F700C0000082E090E09093190123
S1130260809318010E94B6000E94C400529A5A9AC0
S11302702AE12A95F1F700C05A9852980E94CE00BC
S113028083EF91E00197F1F700C0000080912E0107
S113029090912F01A0913001B091310180932601FA
S11302A090932701A0932801B09329010895809188
S11302B01801909119010397B1F00E94A80082E3FC
S11302C08093B3002FE78EED9FE021508040904053
S11302D0E1F700C0000083E090E09093190180935F
S11302E018010E94B6000E94C400529A5A9A2AE148
S11302F02A95F1F700C05A9852980E94CE0083EFD5
S113030091E00197F1F700C0000080912E019091D7
S11303102F01A0913001B09131018093220190937B
S11303202301A0932401B09325010895809118011D
S1130330909119010497B1F00E94A80087E8809376
S1130340B3002FE78EED9FE0215080409040E1F70D
S113035000C0000084E090E090931901809318019C
S11303600E94B6000E94C400529A5A9A2AE12A9521
S1130370F1F700C05A9852980E94CE0083EF91E0A2
S11303800197F1F700C0000080912E0190912F0198
S1130390A0913001B091310180931E0190931F010F
S11303A0A0932001B09321010895809118019091A8
S11303B019010597B1F00E94A80085EA8093B30063
S11303C02FE78EED9FE0215080409040E1F700C080
S11303D0000085E090E090931901809318010E9439
S11303E0B6000E94C400529A5A9A2AE12A95F1F75B
S11303F000C05A9852980E94CE0083EF91E0019772
S1130400F1F700C0000080912E0190912F01A0917E
S11304103001B091310180931A0190931B01A09394
S11304201C01B0931D0108950E94D90060912A0116
S113043070912B0180912C0190912D0120E030E0EE
S113044040E85FE30E94E405882334F081E090E013
S113045090930101809300010E941801609126018C
S113046070912701809128019091290120912A01FE
S113047030912B0140912C0150912D010E94E405F3
S1130480181634F482E090E0909301018093000107
S11304900E945701609122017091230180912401EF
S11304A09091250120912601309127014091280146
S11304B0509129010E94E405181634F483E090E079
S11304C090930101809300010E94960160911E01A6
S11304D070911F01809120019091210120912201AE
S11304E03091230140912401509125010E94E4059B
S11304F0181634F484E090E0909301018093000195
S11305000E94D50160911A0170911B0180911C0118
S113051090911D0120911E0130911F0140912001F5
S1130520509121010E94E405181634F485E090E00E
S113053090930101809300010E94A8008EE68093AD
S1130540B30081E090E090931901809318012FEF9C
S113055083EC99E0215080409040E1F700C0000016
S11305600E94B60008951F920F920FB60F921124A5
S11305702F933F934F935F936F937F938F939F93A7
S1130580AF93BF93EF93FF9310923601109237010C
S1130590109238011092390110923A0110923B01E5
S11305A010923C0110923D0178944A9B0AC010922B
S11305B02A0110922B0110922C0110922D014A99BC
S11305C0F6CF209136013091370140913801509196
S11305D0390160913A0170913B0180913C01909105
S11305E03D010E9431052FE938EC43E95BE30E94A9
S11305F0E90520E030E040E05FE30E94E905609314
S113060032017093330180933401909335016091EA
S1130610320170913301809134019091350120E0D1
S113062030EA4CE854E40E94E90520E030E040E47C
S113063051E40E94BF0460932E0170932F018093B4
S1130640300190933101FF91EF91BF91AF919F9150
S11306508F917F916F915F914F913F912F910F9067
S11306600FBE0F901F9018951F920F920FB60F9206
S113067011242F933F934F935F936F937F938F93A3
S11306809F93AF9320913601309137014091380107
S11306905091390160913A0170913B0180913C0184
S11306A090913D01A1E00E945606209336013093BB
S11306B03701409338015093390160933A017093A4
S11306C03B0180933C0190933D01AF919F918F91A9
S11306D07F916F915F914F913F912F910F900FBE3A
S11306E00F901F90189580E280937C00EAE7F0E079
S11306F0808180688083808180648083808186FD9E
S1130700FDCF8091790080931701EAE7F0E08081C2
S1130710806180838081108208950F931F93CF930B
S1130720DF93A6E0B1E008E111E06FEFC4E0D1E0AF
S113073046E151E0FD0131976083319760836C930A
S1130740559A2BB12F7D9BB190627FB7F894FE012F
S1130750819138E09BB987FF2BB9880F000000C056
S11307602BB9000000C000C000C000C000C000C021
S113077000C000C000C000C000C000C000C000C075
S113078000C03A9539F7E417F50711F77FBF85E8FC
S11307908A95F1F700001396A017B10709F0CACFA4
S11307A0DF91CF911F910F9108950F931F93CF93D2
S11307B0DF93A8E1B1E003E011E0C4E0D1E046E159
S11307C051E0FD0131971082319710821C92559AA5
S11307D02BB12F7D9BB190626FB7F894FE0181918C
S11307E038E09BB987FF2BB9880F000000C02BB9F4
S11307F0000000C000C000C000C000C000C000C0B5
S113080000C000C000C000C000C000C000C000C0E4
S11308103A9539F7E417F50711F76FBF85E88A951C
S1130820F1F700001397A017B10709F0CACFDF91C1
S1130830CF911F910F9108950E9473038091170126
S1130840853650F480911601811113C00E948D03E6
S113085081E0809316010DC080911701853668F000
S113086080911601882349F00E94D5031092160145
S11308700895809117018536B8F708950E94D9002C
S113088060912A0170912B0180912C0190912D018E
S113089020E030E040E451E40E94E405181644F4FA
S11308A084EF91E090930301809302010E948F00F2
S11308B060912A0170912B0180912C0190912D015E
S11308C020E030E040E451E40E94BA04181694F1A8
S11308D00E94140288EE93E0909303018093020136
S11308E0809100019091010183309105A1F034F4CD
S11308F08130910551F0029759F0089585309105A2
S113090091F074F00697A1F008950E948F00089565
S11309100E94860008950E9486000E948600089521
S11309200E947D0008950E947D000E947D0008952C
S11309300E94960008958BE78AB989E084B917B8B4
S11309400E9453000E949F000E94CE000E94A800B3
S11309508EE68093B30083E195E00197F1F700C040
S113096000000E94B6000E945B000E941C040E94CA
S11309703E04FBCF0E946F0508F481E008950E94B5
S1130980D3040C94AA050E94A30558F00E949C0568
S113099040F029F45F3F29F00C94930551110C9415
S11309A0DE050C9499050E94BB0568F39923B1F305
S11309B0552391F3951B550BBB27AA276217730781
S11309C0840738F09F5F5F4F220F331F441FAA1F15
S11309D0A9F335D00E2E3AF0E0E832D091505040D1
S11309E0E695001CCAF72BD0FE2F29D0660F771F7F
S11309F0881FBB1F261737074807AB07B0E809F065
S1130A00BB0B802DBF01FF2793585F4F3AF09E3FE9
S1130A10510578F00C9493050C94DE055F3FE4F3E4
S1130A20983ED4F3869577956795B795F7959F5F2C
S1130A30C9F7880F911D9695879597F90895E1E078
S1130A40660F771F881FBB1F621773078407BA07D7
S1130A5020F0621B730B840BBA0BEE1F88F7E09532
S1130A600895E894F92F96EBFF2381F012161306EC
S1130A701406440B9395F695879577956795579546
S1130A804040FF23B9F71BC099270895882351F4E8
S1130A909850D2F7872B762F652F542F432F322F60
S1130AA020E0B1F3121613061406440B88233AF01F
S1130AB09A95440F551F661F771F881FCAF7552341
S1130AC04AF4440F551F11F460FF04C06F5F7F4F59
S1130AD08F4F9F4F880F9695879597F90895990F93
S1130AE00008550FAA0BE0E8FEEF16161706E807F4
S1130AF0F907C0F012161306E407F50798F0621B15
S1130B00730B840B950B39F40A2661F0232B242BE9
S1130B10252B21F408950A2609F4A140A6958FEF08
S1130B20811D811D089597F99F6780E870E060E05A
S1130B3008959FEF80EC089500240A941616170672
S1130B4018060906089500240A94121613061406BA
S1130B5005060895092E0394000C11F4882352F01D
S1130B60BB0F40F4BF2B11F460FF04C06F5F7F4FD5
S1130B708F4F9F4F089557FD9058440F551F59F0BC
S1130B805F3F71F04795880F97FB991F61F09F3F76
S1130B9079F087950895121613061406551FF2CF9F
S1130BA04695F1DF08C0161617061806991FF1CFEF
S1130BB086957105610508940895E894BB27662716
S1130BC07727CB0197F908950E946F0508F48FEFFA
S1130BD008950E94FC050C94AA050E949C0538F017
S1130BE00E94A30520F0952311F00C9493050C9416
S1130BF0990511240C94DE050E94BB0570F3959FA2
S1130C00C1F3950F50E0551F629FF001729FBB27FF
S1130C10F00DB11D639FAA27F00DB11DAA1F649F9B
S1130C206627B00DA11D661F829F2227B00DA11D4E
S1130C30621F739FB00DA11D621F839FA00D611DD4
S1130C40221F749F3327A00D611D231F849F600DF5
S1130C50211D822F762F6A2F11249F5750409AF01E
S1130C60F1F088234AF0EE0FFF1FBB1F661F771FAA
S1130C70881F91505040A9F79E3F510580F00C9475
S1130C8093050C94DE055F3FE4F3983ED4F3869518
S1130C9077956795B795F795E7959F5FC1F7FE2B15
S1130CA0880F911D9695879597F908950024A7FDBF
S1130CB000942A0F301D401D501D601D701D801DA5
S10B0CC0901D0895F894FFCF84
S1070CC80100E80338
S9030000FC
