:100000000C9434000C94B0020C9451000C945100E8
:100010000C9451000C9451000C9451000C9451001C
:100020000C9451000C9451000C9451000C9451000C
:100030000C9451000C9451000C9451000C945100FC
:100040000C9430030C9451000C9451000C9451000A
:100050000C9451000C9451000C9451000C945100DC
:100060000C9451000C94510011241FBECFEFD8E026
:10007000DEBFCDBF11E0A0E0B1E0E4E6FCE002C0ED
:1000800005900D92A430B107D9F721E0A4E0B1E0CA
:1000900001C01D92AE33B207E1F70E9469040C94CF
:1000A00030060C9400005E988FE097E20197F1F71C
:1000B00000C0000008955E9A8FE097E20197F1F783
:1000C00000C00000089520E030E02817390799F0BB
:1000D000599A5998409102015091030141155105D7
:1000E00039F062E06A95F1F700C041505109F6CF4E
:1000F0002F5F3F4FEACF08955C9A58988EEE92E0BA
:100100000E9463005C98589808955C98589A8EEE07
:1001100092E00E9463005C98589808955C98589803
:1001200084E690E00C9463005C9A589A88EE93E021
:100130000E9463005C985898089585B5816085BDDC
:10014000EEE6F0E08081816080830895E0EBF0E0EE
:10015000808180688083808181608083E1EBF0E032
:100160008081846080830895E0EBF0E080818F7768
:10017000808380818E7F8083E1EBF0E080818B7FC4
:1001800080830895E9E6F0E080818E7F808380811E
:100190008D7F8083E8980895E9E6F0E080818160B2
:1001A0008083808182608083E89A7894089580912A
:1001B0001801909119010197B1F00E94A6008EE6F6
:1001C0008093B3002FE78EED9FE021508040904058
:1001D000E1F700C0000081E090E090931901809366
:1001E00018010E94B4000E94C200529A5A9A2AE151
:1001F0002A95F1F700C05A9852980E94CC0083EFDC
:1002000091E00197F1F700C0000080912E019091DC
:100210002F01A0913001B091310180932A01909378
:100220002B01A0932C01B0932D010895809118010A
:10023000909119010297B1F00E94A6008BE480937F
:10024000B3002FE78EED9FE0215080409040E1F712
:1002500000C0000082E090E09093190180931801A3
:100260000E94B4000E94C200529A5A9A2AE12A952A
:10027000F1F700C05A9852980E94CC0083EF91E0A9
:100280000197F1F700C0000080912E0190912F019D
:10029000A0913001B0913101809326019093270104
:1002A000A0932801B093290108958091180190919D
:1002B00019010397B1F00E94A60082E38093B30076
:1002C0002FE78EED9FE0215080409040E1F700C085
:1002D000000083E090E090931901809318010E9440
:1002E000B4000E94C200529A5A9A2AE12A95F1F764
:1002F00000C05A9852980E94CC0083EF91E0019779
:10030000F1F700C0000080912E0190912F01A09183
:100310003001B09131018093220190932301A09389
:100320002401B0932501089580911801909119013D
:100330000497B1F00E94A60087E88093B3002FE7EE
:100340008EED9FE0215080409040E1F700C000001A
:1003500084E090E090931901809318010E94B4000A
:100360000E94C200529A5A9A2AE12A95F1F700C0D7
:100370005A9852980E94CC0083EF91E00197F1F7D0
:1003800000C0000080912E0190912F01A0913001BA
:10039000B091310180931E0190931F01A093200121
:1003A000B09321010895809118019091190105974A
:1003B000B1F00E94A60085EA8093B3002FE78EED8E
:1003C0009FE0215080409040E1F700C0000085E0B0
:1003D00090E090931901809318010E94B4000E944C
:1003E000C200529A5A9A2AE12A95F1F700C05A9807
:1003F00052980E94CC0083EF91E00197F1F700C082
:10040000000080912E0190912F01A0913001B091B8
:10041000310180931A0190931B01A0931C01B093AA
:100420001D0108950E94D70060912A0170912B014F
:1004300080912C0190912D0120E030E040E85FE3B5
:100440000E94B20587FD06C081E090E09093010113
:10045000809300010E94160160912601709127018E
:10046000809128019091290120912A0130912B013E
:1004700040912C0150912D010E94B205181634F4C0
:1004800082E090E090930101809300010E94550169
:1004900060912201709123018091240190912501A6
:1004A0002091260130912701409128015091290186
:1004B0000E94B205181634F483E090E09093010195
:1004C000809300010E94940160911E0170911F01B0
:1004D00080912001909121012091220130912301EE
:1004E00040912401509125010E94B205181634F460
:1004F00084E090E090930101809300010E94D30179
:1005000060911A0170911B0180911C0190911D0155
:1005100020911E0130911F01409120015091210135
:100520000E94B205181634F485E090E09093010122
:10053000809300010E94A6008EE68093B30081E0C4
:1005400090E090931901809318012FEF83EC99E0CC
:10055000215080409040E1F700C000000C94B400AE
:100560001F920F920FB60F9211242F933F934F9328
:100570005F936F937F938F939F93AF93BF93EF930B
:10058000FF931092360110923701109238011092A9
:10059000390110923A0110923B0110923C011092E5
:1005A0003D0178944A9B09C010922A0110922B01B8
:1005B00010922C0110922D01F5CF2091360130912F
:1005C0003701409138015091390160913A017091A1
:1005D0003B0180913C0190913D010E94FF042FE975
:1005E00038EC43E95BE30E94B70520E030E040E0EF
:1005F0005FE30E94B70560933201709333018093EB
:1006000034019093350160913201709133018091F2
:1006100034019091350120E030EA4CE854E40E9426
:10062000B70520E030E040E451E40E948D0460937F
:100630002E0170932F018093300190933101FF912F
:10064000EF91BF91AF919F918F917F916F915F914A
:100650004F913F912F910F900FBE0F901F901895C3
:100660001F920F920FB60F9211242F933F934F9327
:100670005F936F937F938F939F93AF9320913601F6
:1006800030913701409138015091390160913A0120
:1006900070913B0180913C0190913D01A1E00E944D
:1006A000240620933601309337014093380150934C
:1006B000390160933A0170933B0180933C01909320
:1006C0003D01AF919F918F917F916F915F914F917C
:1006D0003F912F910F900FBE0F901F9018952AB148
:1006E000242B2AB92BB1342F309523233BB1432B34
:1006F0003FB7F894FC01680F791FE617F707E1F0A0
:10070000819198E04BB987FF2BB9880F000000C09A
:100710002BB9000000C000C000C000C000C000C075
:1007200000C000C000C000C000C000C000C000C0C9
:1007300000C09A9539F7E1CF3FBF089580E28093DA
:100740007C0080917A00806880937A0080917A00A2
:10075000806480937A0080917A0086FDFCCF80913E
:1007600079008093170180917A00806180937A00EC
:1007700080917A0010927A0008951F93CF93DF93AF
:10078000C0E0D0E01FEFFE01EC5FFE4F118310834D
:10079000128340E262E170E084E091E00E946F0326
:1007A00085E88A95F1F700002396C231D10559F703
:1007B000DF91CF911F910895CF93DF93C0E0D0E0F8
:1007C000FE01EC5FFE4F138A128A148A40E262E156
:1007D00070E084E091E00E946F0385E88A95F1F76C
:1007E00000002397CB3E8FEFD80751F7DF91CF91D1
:1007F00008950E949E0380911701823448F48091ED
:100800001601811105C00E94BD0381E0809316018D
:1008100080911701823440F080911601882321F0E5
:100820000E94DC031092160108950E94D700609187
:100830002A0170912B0180912C0190912D0120E0D3
:1008400030E040E451E40E94B205181644F484EF0D
:1008500091E090930301809302010E948E006091C9
:100860002A0170912B0180912C0190912D0120E0A3
:1008700030E040E451E40E94880418164CF10E94D4
:10088000120288EE93E0909303018093020180911D
:100890000001909101018330910581F034F48130A1
:1008A000910551F0029761F008958530910551F05E
:1008B0005CF0069759F008950C948E000E94850014
:1008C0000C9485000E947C000C947C000C94940095
:1008D00008958BE78AB989E084B917B80E9453005C
:1008E0000E949D000E94CC000E94A6008EE680938C
:1008F000B30083E195E00197F1F700C000000E948A
:10090000B4000E945B000E94F9030E941504FBCF13
:100910000E943D0508F481E008950E94A1040C9412
:1009200078050E94710558F00E946A0540F029F48C
:100930005F3F29F00C94610551110C94AC050C94A7
:1009400067050E94890568F39923B1F3552391F354
:10095000951B550BBB27AA2762177307840738F02E
:100960009F5F5F4F220F331F441FAA1FA9F335D08B
:100970000E2E3AF0E0E832D091505040E695001C3F
:10098000CAF72BD0FE2F29D0660F771F881FBB1FF9
:10099000261737074807AB07B0E809F0BB0B802DD7
:1009A000BF01FF2793585F4F3AF09E3F510578F003
:1009B0000C9461050C94AC055F3FE4F3983ED4F3CE
:1009C000869577956795B795F7959F5FC9F7880FD7
:1009D000911D9695879597F90895E1E0660F771F29
:1009E000881FBB1F621773078407BA0720F0621BBA
:1009F000730B840BBA0BEE1F88F7E0950895E8940B
:100A0000F92F96EBFF2381F0121613061406440B00
:100A10009395F69587957795679557954040FF2371
:100A2000B9F71BC099270895882351F49850D2F73D
:100A3000872B762F652F542F432F322F20E0B1F3D1
:100A4000121613061406440B88233AF09A95440FA5
:100A5000551F661F771F881FCAF755234AF4440F96
:100A6000551F11F460FF04C06F5F7F4F8F4F9F4F82
:100A7000880F9695879597F90895990F0008550F57
:100A8000AA0BE0E8FEEF16161706E807F907C0F014
:100A900012161306E407F50798F0621B730B840B1C
:100AA000950B39F40A2661F0232B242B252B21F4F6
:100AB00008950A2609F4A140A6958FEF811D811D96
:100AC000089597F99F6780E870E060E008959FEFD0
:100AD00080EC089500240A941616170618060906D5
:100AE000089500240A9412161306140605060895A4
:100AF000092E0394000C11F4882352F0BB0F40F42C
:100B0000BF2B11F460FF04C06F5F7F4F8F4F9F4F6B
:100B1000089557FD9058440F551F59F05F3F71F0ED
:100B20004795880F97FB991F61F09F3F79F0879554
:100B30000895121613061406551FF2CF4695F1DFDD
:100B400008C0161617061806991FF1CF869571056D
:100B5000610508940895E894BB2766277727CB01A1
:100B600097F908950E943D0508F48FEF08950E94BB
:100B7000CA050C9478050E946A0538F00E94710538
:100B800020F0952311F00C9461050C946705112455
:100B90000C94AC050E94890570F3959FC1F3950FE5
:100BA00050E0551F629FF001729FBB27F00DB11DF1
:100BB000639FAA27F00DB11DAA1F649F6627B00D81
:100BC000A11D661F829F2227B00DA11D621F739F6A
:100BD000B00DA11D621F839FA00D611D221F749F78
:100BE0003327A00D611D231F849F600D211D822FBF
:100BF000762F6A2F11249F5750409AF0F1F08823E6
:100C00004AF0EE0FFF1FBB1F661F771F881F915012
:100C10005040A9F79E3F510580F00C9461050C945B
:100C2000AC055F3FE4F3983ED4F3869577956795DE
:100C3000B795F795E7959F5FC1F7FE2B880F911D3C
:100C40009695879597F908950024A7FD00942A0F9B
:100C5000301D401D501D601D701D801D901D08958C
:040C6000F894FFCF36
:040C64000100E803A0
:00000001FF
